:020000040800F2
:1000000000180020750700081507000821070008E0
:10001000270700082D07000833070008000000002C
:100020000000000000000000000000003907000888
:100030004507000800000000510700085D070008A0
:10004000BD070008BD070008BD070008BD07000880
:10005000BD070008BD070008BD070008BD07000870
:10006000BD070008BD070008BD070008BD07000860
:10007000BD070008BD070008BD070008BD07000850
:10008000BD070008BD070008BD070008BD07000840
:10009000BD070008BD070008BD070008BD07000830
:1000A000BD070008BD070008BD070008BD07000820
:1000B000BD070008BD07000800000000BD070008DC
:1000C000BD0700080000000000000000BD07000898
:1000D00000000000BD070008BD0700080000000088
:1000E000BD070008BD070008BD07000800000000AC
:1000F0000000000000000000000000000000000000
:0C01000000000000000000005FF808F1A3
:10010C0010B5054C237833B9044B13B10448AFF345
:10011C0000800123237010BD0C00002000000000A3
:10012C004C1B000808B5034B1BB103490348AFF344
:10013C00008008BD00000000100000204C1B0008CF
:10014C0080B582B000AF786000220221414800F0F7
:10015C0017FE7B68DB09DBB203F00103DBB21A4646
:10016C0040213C4800F00CFE7B689B09DBB203F09D
:10017C000103DBB21A462021364800F001FE7B68F1
:10018C005B09DBB203F00103DBB21A4610213148E4
:10019C0000F0F6FD7B681B09DBB203F00103DBB258
:1001AC001A4608212B4800F0EBFD012204212948B6
:1001BC0000F0E6FD012000F05FFB00220421254841
:1001CC0000F0DEFD012000F057FB7B68DB08DBB2A2
:1001DC0003F00103DBB21A4640211E4800F0D0FDAB
:1001EC007B689B08DBB203F00103DBB21A462021CB
:1001FC00184800F0C5FD7B685B08DBB203F0010317
:10020C00DBB21A461021134800F0BAFD7B68DBB252
:10021C0003F00103DBB21A4608210E4800F0B0FDD2
:10022C00012204210B4800F0ABFD012000F024FB5F
:10023C0000220421074800F0A3FD012000F01CFB64
:10024C007B68032B02D8042000F016FB00BF083794
:10025C00BD4680BD0008014080B582B000AF78601B
:10026C00012202213E4800F08BFD7B68DB09DBB2EA
:10027C0003F00103DBB21A464021394800F080FD3F
:10028C007B689B09DBB203F00103DBB21A46202129
:10029C00334800F075FD7B685B09DBB203F00103AA
:1002AC00DBB21A4610212E4800F06AFD7B681B0950
:1002BC00DBB203F00103DBB21A460821284800F038
:1002CC005FFD01220421264800F05AFD012000F0B8
:1002DC00D3FA00220421224800F052FD012000F044
:1002EC00CBFA7B68DB08DBB203F00103DBB21A4606
:1002FC0040211B4800F044FD7B689B08DBB203F0F7
:10030C000103DBB21A462021154800F039FD7B6849
:10031C005B08DBB203F00103DBB21A461021104874
:10032C0000F02EFD7B68DBB203F00103DBB21A4652
:10033C0008210B4800F024FD01220421084800F09C
:10034C001FFD012000F098FA00220421044800F05F
:10035C0017FD012000F090FA00BF0837BD4680BDA4
:10036C000008014080B500AF00220221434800F094
:10037C0007FD00220421414800F002FD142000F08A
:10038C007BFA002240213D4800F0FAFC002220219B
:10039C003A4800F0F5FC01221021384800F0F0FC3E
:1003AC0001220821354800F0EBFC012204213348DE
:1003BC0000F0E6FC012000F05FFA002204212F4837
:1003CC0000F0DEFC012000F057FA052000F054FA92
:1003DC0001220421294800F0D3FC012000F04CFA42
:1003EC0000220421254800F0CBFC012000F044FA47
:1003FC00012000F041FA01220421204800F0C0FC49
:10040C00012000F039FA002204211C4800F0B8FC4D
:10041C00012000F031FA00224021184800F0B0FC15
:10042C0000222021154800F0ABFC012210211348BA
:10043C0000F0A6FC00220821104800F0A1FC0122CB
:10044C0004210E4800F09CFC012000F015FA00225B
:10045C0004210A4800F094FC012000F00DFA282039
:10046C00FFF76EFE0820FFF76BFE0120FFF768FE1A
:10047C000C20FFF765FE00BF80BD00BF00080140E7
:10048C0080B582B000AF786007E07B681B781846B7
:10049C00FFF7E2FE7B6801337B607B681B78002BE7
:1004AC00F3D100BF00BF0837BD4680BD80B588B012
:1004BC0000AF00F07FF900F029F800F097F800F099
:1004CC0079F8FFF74FFF104A3B4692E8030018609B
:1004DC0004331980BB1D00221A605A609A60DA60DE
:1004EC001A615A611A833B461846FFF7C9FF4FF44D
:1004FC00FA7000F0C1F90120FFF722FE4FF4FA70F8
:10050C0000F0BAF9EFE700BF641B000880B594B0A7
:10051C0000AF07F1280328220021184601F008FB40
:10052C0007F1140300221A605A609A60DA601A61AB
:10053C003B1D00221A605A609A60DA600A23BB6283
:10054C000123BB631023FB6301233B6400237B6407
:10055C0007F12803184600F037FC0346002B01D0A6
:10056C0000F076F80F237B610023BB610023FB6155
:10057C0000233B6200237B6207F114030021184621
:10058C0000F0A4FE0346002B01D000F061F801231B
:10059C007B604FF40073BB603B1D184601F01AF8EA
:1005AC000346002B01D000F053F800BF5037BD4676
:1005BC0080BD000080B500AF0A4B0B4A1A60094B96
:1005CC004FF0FF325A60074B4FF480729A60054827
:1005DC0001F076F90346002B01D000F039F800BF8A
:1005EC0080BD00BF280000200028004080B586B0E8
:1005FC0000AF07F1080300221A605A609A60DA60B3
:10060C00114B9B69104A43F0040393610E4B9B6999
:10061C0003F004037B607B6800227E210B4800F012
:10062C00AFFB7E23BB600123FB6000233B610223F5
:10063C007B6107F108031946044800F025FA00BF56
:10064C001837BD4680BD00BF0010024000080140B5
:10065C0080B400AF00BFBD4680BC704780B485B08D
:10066C0000AF154B9B69144A43F001039361124B85
:10067C009B6903F00103BB60BB680F4BDB690E4A3F
:10068C0043F08053D3610C4BDB6903F080537B60E8
:10069C007B680A4B5B68FB60FB6823F0E063FB60E4
:1006AC00FB6843F08063FB60044AFB68536000BF47
:1006BC001437BD4680BC704700100240000001405A
:1006CC0080B584B000AF78607B681B680B4A93429E
:1006DC0010D100F06DFB0A4BDB69094A43F0006353
:1006EC00D361074BDB6903F00063FB60FB68054BD0
:1006FC0001221A6000BF1037BD4680BD00280040A3
:10070C00001002403C04424280B400AF00BFBD4622
:10071C0080BC704780B400AFFEE780B400AFFEE74A
:10072C0080B400AFFEE780B400AFFEE780B400AF4A
:10073C0000BFBD4680BC704780B400AF00BFBD4653
:10074C0080BC704780B400AF00BFBD4680BC704712
:10075C0080B500AF00F074F800BF80BD80B400AF6E
:10076C0000BFBD4680BC70470C480D490D4A0023A4
:10077C0002E0D458C4500433C4188C42F9D30A4A4A
:10078C000A4C002301E013600432A242FBD3FFF7B2
:10079C00E5FF01F0A9F9FFF789FE70470000002082
:1007AC000C000020C41B00080C000020400000209E
:1007BC00FEE7000080B500AF084B1B68074A43F00A
:1007CC0010031360032000F02BF9002000F008F850
:1007DC00FFF744FF0023184680BD00BF00200240F5
:1007EC0080B582B000AF7860124B1A68124B1B7840
:1007FC0019464FF47A73B3FBF1F3B2FBF3F31846DB
:10080C0000F035F90346002B01D001230EE07B6884
:10081C000F2B0AD8002279684FF0FF3000F00BF94B
:10082C00064A7B681360002300E001231846083752
:10083C00BD4680BD00000020080000200400002000
:10084C0080B400AF054B1B781A46054B1B6813444C
:10085C00034A136000BFBD4680BC704708000020EF
:10086C003C00002080B400AF024B1B681846BD460C
:10087C0080BC70473C00002080B584B000AF78602D
:10088C00FFF7F0FFB8607B68FB60FB68B3F1FF3FDC
:10089C0005D00A4B1B781A46FB681344FB6000BF5B
:1008AC00FFF7E0FF0246BB68D31AFA689A42F7D802
:1008BC0000BF00BF1037BD4680BD00BF0800002040
:1008CC0080B485B000AF78607B6803F00703FB60F1
:1008DC000C4BDB68BB60BA684FF6FF031340BB6080
:1008EC00FB681A02BB68134343F0BF6343F4003345
:1008FC00BB60044ABB68D36000BF1437BD4680BCE4
:10090C00704700BF00ED00E080B400AF044BDB6823
:10091C001B0A03F007031846BD4680BC704700BF96
:10092C0000ED00E080B483B000AF03463960FB718A
:10093C0097F90730002B0ADB3B68DAB20C4997F9C0
:10094C0007301201D2B20B4483F800230AE03B6853
:10095C00DAB20849FB7903F00F03043B1201D2B25F
:10096C000B441A7600BF0C37BD4680BC704700BFE5
:10097C0000E100E000ED00E080B489B000AFF86069
:10098C00B9607A60FB6803F00703FB61FB69C3F194
:10099C000703042B28BF0423BB61FB690433062B1C
:1009AC0002D9FB69033B00E000237B614FF0FF326F
:1009BC00BB6902FA03F3DA43BB681A407B699A40BD
:1009CC004FF0FF317B6901FA03F3D9437B680B408D
:1009DC00134318462437BD4680BC704780B582B09F
:1009EC0000AF78607B68013BB3F1807F01D30123BA
:1009FC000FE00A4A7B68013B53600F214FF0FF3038
:100A0C00FFF790FF054B00229A60044B07221A60F7
:100A1C00002318460837BD4680BD00BF10E000E03B
:100A2C0080B582B000AF78607868FFF749FF00BFEF
:100A3C000837BD4680BD80B586B000AF0346B960AF
:100A4C007A60FB7300237B61FFF75EFF78617A6845
:100A5C00B9687869FFF790FF024697F90F30114695
:100A6C001846FFF75FFF00BF1837BD4680BD80B545
:100A7C0082B000AF78607868FFF7B0FF0346184685
:100A8C000837BD4680BD000080B48BB000AF7860E5
:100A9C00396000237B6200233B6261E101227B6AA7
:100AAC0002FA03F3FB613B681B68FA691340BB61F4
:100ABC00BA69FB699A4240F050813B685B68974A7F
:100ACC0093425ED0954A934275D8954A934258D03A
:100ADC00934A93426FD8934A934252D0914A93428D
:100AEC0069D8914A93424CD08F4A934263D88F4A2B
:100AFC00934246D08D4A93425DD8122B2AD8122BA2
:100B0C0059D801A252F823F08F0B0008690B00088A
:100B1C007B0B0008BD0B0008C30B0008C30B0008BF
:100B2C00C30B0008C30B0008C30B0008C30B000861
:100B3C00C30B0008C30B0008C30B0008C30B000851
:100B4C00C30B0008C30B0008C30B0008710B000893
:100B5C00850B0008764A934213D02CE03B68DB6887
:100B6C003B6229E03B68DB6804333B6224E03B6872
:100B7C00DB6808333B621FE03B68DB680C333B628D
:100B8C001AE03B689B68002B02D104233B6213E004
:100B9C003B689B68012B05D108233B627B68FA6993
:100BAC001A6109E008233B627B68FA695A6103E029
:100BBC0000233B6200E000BFBB69FF2B01D87B68C0
:100BCC0001E07B6804337B61BB69FF2B02D87B6A35
:100BDC009B0002E07B6A083B9B003B617B691A68C7
:100BEC000F213B6901FA03F3DB431A40396A3B6975
:100BFC0001FA03F31A437B691A603B685B6803F0E4
:100C0C008053002B00F0A9804A4B9B69494A43F062
:100C1C0001039361474B9B6903F00103BB60BB6805
:100C2C00454A7B6A9B08023352F82330FB607B6A8F
:100C3C0003F003039B000F2202FA03F3DB43FA6871
:100C4C001340FB607B683D4A93420DD07B683C4A65
:100C5C00934207D07B683B4A934201D1022304E0C4
:100C6C00032302E0012300E000237A6A02F003026E
:100C7C0092009340FA681343FB602F497B6A9B08F0
:100C8C000233FA6841F823203B685B6803F4803335
:100C9C00002B06D02C4B1A682B49BB6913430B60F5
:100CAC0006E0294B1A68BB69DB43274913400B60EC
:100CBC003B685B6803F40033002B06D0224B5A6868
:100CCC002149BB6913434B6006E01F4B5A68BB6953
:100CDC00DB431D4913404B603B685B6803F4801396
:100CEC00002B06D0184B9A681749BB6913438B60CD
:100CFC0006E0154B9A68BB69DB43134913408B60C4
:100D0C003B685B6803F40013002B1FD00E4BDA68B2
:100D1C000D49BB691343CB601FE000BF00003210CC
:100D2C0000003110000022100000211000001210F1
:100D3C0000001110001002400000014000080140AA
:100D4C00000C014000100140000401400B4BDA681C
:100D5C00BB69DB4309491340CB607B6A01337B627F
:100D6C003B681A687B6A22FA03F3002B7FF496AE79
:100D7C0000BF00BF2C37BD4680BC7047000401404B
:100D8C0080B483B000AF78600B467B8013467B70D9
:100D9C007B78002B03D07A887B681A6103E07B8810
:100DAC001A047B681A6100BF0C37BD4680BC7047C3
:100DBC0080B400AF034B01221A6000BFBD4680BC5B
:100DCC00704700BF20000E4280B586B000AF78603F
:100DDC007B68002B01D1012372E27B681B6803F056
:100DEC000103002B00F08780924B5B6803F00C032F
:100DFC00042B0CD08F4B5B6803F00C03082B12D127
:100E0C008C4B5B6803F48033B3F5803F0BD1894B7B
:100E1C001B6803F40033002B6CD07B685B68002BE1
:100E2C0068D101234CE27B685B68B3F5803F06D147
:100E3C00804B1B687F4A43F4803313602EE07B6841
:100E4C005B68002B0CD17B4B1B687A4A23F48033F4
:100E5C001360784B1B68774A23F4802313601DE0E2
:100E6C007B685B68B3F5A02F0CD1724B1B68714A81
:100E7C0043F4802313606F4B1B686E4A43F480333A
:100E8C0013600BE06B4B1B686A4A23F480331360CE
:100E9C00684B1B68674A23F4802313607B685B688C
:100EAC00002B13D0FFF7DEFC386108E0FFF7DAFC0B
:100EBC0002463B69D31A642B01D9032300E25D4B34
:100ECC001B6803F40033002BF0D014E0FFF7CAFCCE
:100EDC00386108E0FFF7C6FC02463B69D31A642B65
:100EEC0001D90323ECE1534B1B6803F40033002BB3
:100EFC00F0D100E000BF7B681B6803F00203002BFD
:100F0C0063D04C4B5B6803F00C03002B0BD0494BAC
:100F1C005B6803F00C03082B1CD1464B5B6803F495
:100F2C008033002B16D1434B1B6803F00203002BBC
:100F3C0005D07B681B69012B01D00123C0E13D4B1F
:100F4C001B6823F0F8027B685B69DB0039491343AB
:100F5C000B603AE07B681B69002B20D0364B0122DA
:100F6C001A60FFF77FFC386108E0FFF77BFC024654
:100F7C003B69D31A022B01D90323A1E12D4B1B682A
:100F8C0003F00203002BF0D02A4B1B6823F0F8026D
:100F9C007B685B69DB00274913430B6015E0264B2C
:100FAC0000221A60FFF75EFC386108E0FFF75AFC7C
:100FBC0002463B69D31A022B01D9032380E11D4B56
:100FCC001B6803F00203002BF0D17B681B6803F055
:100FDC000803002B3AD07B689B69002B19D0174B68
:100FEC0001221A60FFF73EFC386108E0FFF73AFC7B
:100FFC0002463B69D31A022B01D9032360E10D4B46
:10100C005B6A03F00203002BF0D0012000F0C4FA5D
:10101C001CE00A4B00221A60FFF724FC38610FE039
:10102C00FFF720FC02463B69D31A022B08D9032395
:10103C0046E100BF001002400000424280044242E0
:10104C00924B5B6A03F00203002BE9D17B681B68AF
:10105C0003F00403002B00F0A6800023FB758B4BE0
:10106C00DB6903F08053002B0DD1884BDB69874A79
:10107C0043F08053D361854BDB6903F08053BB6035
:10108C00BB680123FB75824B1B6803F48073002B38
:10109C0018D17F4B1B687E4A43F480731360FFF7B3
:1010AC00E1FB386108E0FFF7DDFB02463B69D31A30
:1010BC00642B01D9032303E1754B1B6803F4807384
:1010CC00002BF0D07B68DB68012B06D16F4B1B6AC1
:1010DC006E4A43F0010313622DE07B68DB68002B42
:1010EC000CD16A4B1B6A694A23F001031362674BEC
:1010FC001B6A664A23F0040313621CE07B68DB68FE
:10110C00052B0CD1614B1B6A604A43F0040313623C
:10111C005E4B1B6A5D4A43F0010313620BE05B4BB1
:10112C001B6A5A4A23F001031362584B1B6A574A35
:10113C0023F0040313627B68DB68002B15D0FFF7E8
:10114C0091FB38610AE0FFF78DFB02463B69D31A2D
:10115C0041F28832934201D90323B1E04B4B1B6A15
:10116C0003F00203002BEED014E0FFF77BFB386199
:10117C000AE0FFF777FB02463B69D31A41F288324B
:10118C00934201D903239BE0404B1B6A03F00203FB
:10119C00002BEED1FB7D012B05D13C4BDB693B4A8F
:1011AC0023F08053D3617B68DB69002B00F08780D0
:1011BC00364B5B6803F00C03082B61D07B68DB6952
:1011CC00022B46D1334B00221A60FFF74BFB3861E0
:1011DC0008E0FFF747FB02463B69D31A022B01D903
:1011EC0003236DE0294B1B6803F00073002BF0D137
:1011FC007B681B6AB3F5803F08D1244B5B6823F4F2
:10120C0000327B689B68214913434B601F4B5B6822
:10121C0023F474127B68196A7B685B6A0B431B4965
:10122C0013434B601B4B01221A60FFF71BFB386109
:10123C0008E0FFF717FB02463B69D31A022B01D9D2
:10124C0003233DE0114B1B6803F00073002BF0D01F
:10125C0035E0104B00221A60FFF704FB386108E000
:10126C00FFF700FB02463B69D31A022B01D903237B
:10127C0026E0064B1B6803F00073002BF0D11EE038
:10128C007B68DB69012B07D1012319E000100240B8
:10129C0000700040600042420B4B5B68FB60FB68D7
:1012AC0003F480327B681B6A9A4206D1FB6803F414
:1012BC0070127B685B6A9A4201D0012300E0002324
:1012CC0018461837BD4680BD0010024080B584B06A
:1012DC0000AF786039607B68002B01D10123D0E02E
:1012EC006A4B1B6803F007033A689A4210D9674BA4
:1012FC001B6823F0070265493B6813430B60634B83
:10130C001B6803F007033A689A4201D00123B8E046
:10131C007B681B6803F00203002B20D07B681B68E2
:10132C0003F00403002B05D0594B5B68584A43F477
:10133C00E06353607B681B6803F00803002B05D047
:10134C00534B5B68524A43F460535360504B5B6899
:10135C0023F0F0027B689B684D4913434B607B681C
:10136C001B6803F00103002B40D07B685B68012BEA
:10137C0007D1474B1B6803F40033002B15D1012315
:10138C007FE07B685B68022B07D1414B1B6803F045
:10139C000073002B09D1012373E03D4B1B6803F054
:1013AC000203002B01D101236BE0394B5B6823F066
:1013BC0003027B685B68364913434B60FFF752FAB4
:1013CC00F8600AE0FFF74EFA0246FB68D31A41F2C6
:1013DC008832934201D9032353E02D4B5B6803F011
:1013EC000C027B685B689B009A42EBD1274B1B6815
:1013FC0003F007033A689A4210D2244B1B6823F07F
:10140C00070222493B6813430B60204B1B6803F017
:10141C0007033A689A4201D0012332E07B681B68CB
:10142C0003F00403002B08D0194B5B6823F4E06233
:10143C007B68DB68164913434B607B681B6803F0C1
:10144C000803002B09D0124B5B6823F460527B68B5
:10145C001B69DB000E4913434B6000F021F8024678
:10146C000B4B5B681B0903F00F030A49CB5C22FA98
:10147C0003F3094A1360094B1B681846FFF7B0F9D0
:10148C00002318461037BD4680BD00BF0020024027
:10149C0000100240A41B00080000002004000020E3
:1014AC0090B48AB000AF294B3C1D0FCB84E80F00E1
:1014BC0040F201233B800023FB610023BB6100232E
:1014CC007B6200237B6100233B62214B5B68FB61E9
:1014DC00FB6903F00C03042B02D0082B03D02BE088
:1014EC001C4B3B622BE0FB699B0C03F00F03283376
:1014FC003B4413F8243C7B61FB6903F48033002BE1
:10150C0012D0134B5B685B0C03F0010328333B4494
:10151C0013F8283CBB617B690E4A03FB02F2BB69E2
:10152C00B2FBF3F37B6204E07B690B4A02FB03F32F
:10153C007B627B6A3B6202E0064B3B6200BF3B6A0C
:10154C0018462837BD4690BC704700BF841B000866
:10155C000010024000127A0000093D0080B400AF78
:10156C00024B1B681846BD4680BC7047000000202B
:10157C0080B500AFFFF7F2FF0246054B5B68DB0A54
:10158C0003F007030349CB5C22FA03F3184680BD32
:10159C0000100240B41B000880B485B000AF786026
:1015AC000A4B1B680A4AA2FB03235B0A7A6802FBFC
:1015BC0003F3FB6000BFFB685A1EFA60002BF9D1E5
:1015CC0000BF00BF1437BD4680BC70470000002030
:1015DC00D34D621080B586B000AF786000233B61BC
:1015EC000023FB607B681B6803F00103002B7DD09C
:1015FC000023FB754F4BDB6903F08053002B0DD19F
:10160C004C4BDB694B4A43F08053D361494BDB694C
:10161C0003F08053BB60BB680123FB75464B1B6812
:10162C0003F48073002B18D1434B1B68424A43F4DC
:10163C0080731360FFF716F9386108E0FFF712F9B1
:10164C0002463B69D31A642B01D903236DE03A4B54
:10165C001B6803F48073002BF0D0364B1B6A03F429
:10166C004073FB60FB68002B2ED07B685B6803F437
:10167C004073FA689A4227D02E4B1B6A23F44073AE
:10168C00FB602E4B01221A602C4B00221A60294A57
:10169C00FB681362FB6803F00103002B14D0FFF707
:1016AC00E1F838610AE0FFF7DDF802463B69D31A2E
:1016BC0041F28832934201D9032336E01D4B1B6A59
:1016CC0003F00203002BEED01A4B1B6A23F440727A
:1016DC007B685B68174913430B62FB7D012B05D1BB
:1016EC00144BDB69134A23F08053D3617B681B686E
:1016FC0003F00203002B08D00E4B5B6823F440422E
:10170C007B689B680B4913434B607B681B6803F039
:10171C001003002B08D0074B5B6823F480027B6816
:10172C00DB68044913434B60002318461837BD4649
:10173C0080BD00BF001002400070004040044242D7
:10174C0090B58DB000AF7860584B07F10C040FCBFF
:10175C0084E80F0040F201233B8100237B620023CD
:10176C00FB6200233B620023FB610023BB627B68AE
:10177C00102B0AD07B68102B00F28E807B68012B1B
:10178C0049D07B68022B79D086E0494B5B68FB61C2
:10179C00474B1B6803F08073002B7FD0FB699B0CBD
:1017AC0003F00F0330333B4413F8243C3B62FB69DA
:1017BC0003F48033002B17D03D4B5B685B0C03F0BC
:1017CC00010330333B4413F8283C7B62FB6903F480
:1017DC008033002B0DD0374A7B6AB2FBF3F23B6AA5
:1017EC0002FB03F3FB6204E03B6A334A02FB03F3A4
:1017FC00FB622F4B5B6803F48003B3F5800F02D1BF
:10180C00FB6ABB624AE0FB6A5B002C4AA2FB032327
:10181C005B08BB6242E0264B1B6AFB61FB6903F46D
:10182C004073B3F5807F08D1FB6903F00203002BF2
:10183C0003D04FF40043BB621FE0FB6903F4407319
:10184C00B3F5007F09D11A4B5B6A03F00203002B3E
:10185C0003D049F64043BB620FE0FB6903F44073CD
:10186C00B3F5407F1CD1124B1B6803F40033002BE3
:10187C0016D04FF22443BB6212E011E0FFF778FE62
:10188C0002460B4B5B689B0B03F0030301335B00BD
:10189C00B2FBF3F3BB6204E000BF02E000BF00E068
:1018AC0000BFBB6A18463437BD4690BD941B000878
:1018BC000010024000127A0000093D00ABAAAAAA4F
:1018CC0080B584B000AF78600023FB607B68002B90
:1018DC0001D1012384E07B685B7CDBB2002B05D15A
:1018EC007B6800221A747868FEF7EAFE7B68022295
:1018FC005A74786800F07AF80346002B04D07B68A1
:10190C0004225A7401236BE0786800F09CF80346BB
:10191C00002B04D07B6804225A74012360E07B689E
:10192C001B685A687B681B6822F007025A607B6848
:10193C009B68002B05D02C4B1B6B2B4A23F001030F
:10194C001363294BDB6A23F460727B689B6826491E
:10195C001343CB627B685B68B3F1FF3F03D07B68BA
:10196C005B68FB600EE00120FFF7EAFEF860FB68A5
:10197C00002B04D17B6804225A74012330E0FB68ED
:10198C00013BFB607B681B689B6823F00F01FB68C5
:10199C001A0C7B681B680A439A607B681B68DB68BF
:1019AC001B0C1B04FA6891B27A6812680B43D36063
:1019BC00786800F070F80346002B04D07B68042292
:1019CC005A7401230CE07B680022DA737B680122D5
:1019DC005A737B6801229A737B6801225A74002324
:1019EC0018461037BD4680BD006C004080B584B0F1
:1019FC0000AF78600023FB607B68002B01D10123D2
:101A0C001DE07B681B685A687B681B6822F0080223
:101A1C005A60FEF727FFF86009E0FEF723FF024645
:101A2C00FB68D31AB3F57A7F01D9032307E07B68EF
:101A3C001B685B6803F00803002BEED000231846EC
:101A4C001037BD4680BD80B584B000AF78600023F0
:101A5C00FB60FEF707FFF86009E0FEF703FF0246A4
:101A6C00FB68D31AB3F57A7F01D903230FE07B68A7
:101A7C001B685B6803F02003002BEED07B681B68AF
:101A8C005A687B681B6842F010025A6000231846A3
:101A9C001037BD4680BD80B584B000AF78600023A0
:101AAC00FB607B681B685A687B681B6822F010021D
:101ABC005A60FEF7D7FEF86009E0FEF7D3FE024647
:101ACC00FB68D31AB3F57A7F01D9032307E07B684F
:101ADC001B685B6803F02003002BEED00023184634
:101AEC001037BD4680BD000070B500260C4D0D4C66
:101AFC00641BA410A64209D100F022F800260A4D5E
:101B0C000A4C641BA410A64205D170BD55F8043BC9
:101B1C0098470136EEE755F8043B98470136F2E753
:101B2C00BC1B0008BC1B0008BC1B0008C01B000829
:101B3C0003460244934200D1704703F8011BF9E7B6
:101B4C00F8B500BFF8BC08BC9E467047F8B500BF9E
:081B5C00F8BC08BC9E4670476E
:101B640054455354450000000000000000000000EC
:101B74000000000000000000000000000000000061
:101B840002030405060708090A0B0C0D0E0F1010BA
:101B940002030405060708090A0B0C0D0E0F1010AA
:101BA4000000000000000000010203040607080909
:081BB40000000000010203041F
:041BBC0031010008EB
:041BC0000D0100080B
:0C1BC4000024F4001000000001000000EC
:040000050800077573
:00000001FF
