:020000040800F2
:10000000001800204D070008910600089D06000812
:10001000A3060008A9060008AF06000800000000BB
:10002000000000000000000000000000B50600080D
:10003000C106000800000000CD060008D90600082F
:100040009507000895070008950700089507000820
:100050009507000895070008950700089507000810
:100060009507000895070008950700089507000800
:1000700095070008950700089507000895070008F0
:1000800095070008950700089507000895070008E0
:1000900095070008950700089507000895070008D0
:1000A00095070008950700089507000895070008C0
:1000B0009507000895070008000000009507000854
:1000C00095070008000000000000000095070008E8
:1000D00000000000950700089507000800000000D8
:1000E0009507000895070008950700080000000024
:1000F0000000000000000000000000000000000000
:0C01000000000000000000005FF808F1A3
:10010C0010B5054C237833B9044B13B10448AFF345
:10011C0000800123237010BD0C00002000000000A3
:10012C00B823000808B5034B1BB103490348AFF3D0
:10013C00008008BD0000000010000020B82300085B
:10014C0080B582B000AF0346FB71FB79DB08DBB2F4
:10015C0003F00103DBB21A4680211C4800F0FCFDC1
:10016C00FB799B08DBB203F00103DBB21A4640219A
:10017C00164800F0F1FDFB795B08DBB203F00103DC
:10018C00DBB21A462021114800F0E6FDFB7903F0A2
:10019C000103DBB21A4610210C4800F0DDFD0120F2
:1001AC0000F056FB01220121094800F0D5FD012089
:1001BC0000F04EFB00220121054800F0CDFD01208E
:1001CC0000F046FB00BF0837BD4680BD000C014067
:1001DC000008014080B582B000AF0346FB71FB798B
:1001EC001B09DBB21846FFF7ABFFFB791846FFF78C
:1001FC00A7FF00BF0837BD4680BD000080B582B0A8
:10020C0000AF786000220221084800F0A5FD7B6851
:10021C00DBB21846FFF7DEFF7B68032B02D8022007
:10022C0000F016FB00BF0837BD4680BD000801403A
:10023C0080B582B000AF0346FB7101220221054854
:10024C0000F08AFDFB791846FFF7C4FF00BF0837A2
:10025C00BD4680BD0008014080B500AF00220221E0
:10026C001B4800F079FD00220121194800F074FDB3
:10027C00142000F0EDFA0320FFF762FF052000F0D8
:10028C00E7FA012000F0E4FA01220121104800F005
:10029C0063FD012000F0DCFA002201210C4800F083
:1002AC005BFD012000F0D4FA0220FFF749FF282063
:1002BC00FFF7A4FF0820FFF7A1FF0120FFF79EFF27
:1002CC000C20FFF79BFF8020FFF798FF00BF80BD3D
:1002DC000008014080B586B000AF786039600A2311
:1002EC007B617B69013B7B6107F108027B691344ED
:1002FC0030221A707B69002BF3D17968184BA3FB61
:10030C000123DA0813469B0013445B00CA1AD3B2CC
:10031C003033D9B207F108027B6913440A461A70CC
:10032C007B680F4AA2FB0323DB087B607B690133EC
:10033C007B617B68002BE0D13B68013B3B6007F1A4
:10034C0008023B6813441B781846FFF771FF3B68A3
:10035C00002BF1D100BF00BF1837BD4680BD00BFD8
:10036C00CDCCCCCC80B584B000AFF860B9607A60ED
:10037C000221F868FFF7AEFF3A20FFF759FF022180
:10038C00B868FFF7A7FF3A20FFF752FF0221786801
:10039C00FFF7A0FF00BF1037BD4680BD80B500AF92
:1003AC0000F0F4F900F022F800F0BEF800F072F85A
:1003BC00FFF752FF8020FFF721FF002209490A486E
:1003CC0001F098FB074B1B781846064B5B781946D7
:1003DC00044B9B781A46FFF7C5FF8020FFF70EFFF2
:1003EC00EBE700BF280000202C00002080B594B063
:1003FC0000AF07F1280328220021184601F0CEFF98
:10040C0007F1140300221A605A609A60DA601A61CC
:10041C003B1D00221A605A609A60DA600A23BB62A4
:10042C000123BB631023FB6301233B6400237B6428
:10043C0007F12803184600F0B3FC0346002B01D04B
:10044C0000F0C4F80F237B610023BB610023FB6128
:10045C0000233B6200237B6207F114030021184642
:10046C0000F020FF0346002B01D000F0AFF8012371
:10047C007B604FF40073BB603B1D184601F096F88F
:10048C000346002B01D000F0A1F800BF5037BD4649
:10049C0080BD000080B582B000AF3B1D00210A4634
:1004AC001A800A469A7000233B601D4B1D4A1A6045
:1004BC001B4B4FF0FF325A60194B4FF480729A600D
:1004CC00174801F0E9F90346002B01D000F07EF843
:1004DC0010233B7113237B710023BB713B1D012245
:1004EC0019460F4801F06EFA0346002B01D000F0BC
:1004FC006DF801233B7001237B700123BB7000233B
:10050C00FB703B4601221946054801F0CBFB034624
:10051C00002B01D000F05AF800BF0837BD4680BD53
:10052C002C0000200028004080B586B000AF07F1F9
:10053C00080300221A605A609A60DA60204B9B69AB
:10054C001F4A43F0040393611D4B9B6903F00403A2
:10055C007B607B681A4B9B69194A43F008039361D3
:10056C00174B9B6903F008033B603B680022072193
:10057C00144800F0F1FB0022F021134800F0ECFBD2
:10058C000723BB600123FB6000233B6102237B61DB
:10059C0007F1080319460B4800F062FAF023BB6020
:1005AC000123FB6000233B6102237B6107F10803FD
:1005BC001946054800F054FA00BF1837BD4680BDF7
:1005CC000010024000080140000C014080B400AF54
:1005DC0000BFBD4680BC704780B485B000AF154BE2
:1005EC009B69144A43F001039361124B9B6903F01E
:1005FC000103BB60BB680F4BDB690E4A43F08053B1
:10060C00D3610C4BDB6903F080537B607B680A4B36
:10061C005B68FB60FB6823F0E063FB60FB6843F006
:10062C000073FB60044AFB68536000BF1437BD467F
:10063C0080BC7047001002400000014080B584B0BF
:10064C0000AF78607B681B680B4A934210D100F0B6
:10065C009BFB0A4BDB69094A43F00063D361074BF0
:10066C00DB6903F00063FB60FB68054B01221A6039
:10067C0000BF1037BD4680BD00280040001002406E
:10068C003C04424280B400AF00BFBD4680BC704702
:10069C0080B400AFFEE780B400AFFEE780B400AFDB
:1006AC00FEE780B400AFFEE780B400AF00BFBD46EC
:1006BC0080BC704780B400AF00BFBD4680BC7047A3
:1006CC0080B400AF00BFBD4680BC704780B500AFA2
:1006DC0000F0A2F800BF80BD80B400AF154B1B68C2
:1006EC00144A43F001031360124B5A681149124B20
:1006FC0013404B600F4B1B680E4A23F0847323F49A
:10070C00803313600B4B1B680A4A23F4802313605D
:10071C00084B5B68074A23F4FE035360054B4FF408
:10072C001F029A60054B4FF000629A6000BFBD46F5
:10073C0080BC7047001002400000FFF800ED00E0A4
:10074C00002103E00B4B5B58435004310A480B4B20
:10075C0042189A42F6D30A4A02E0002342F8043BBC
:10076C00084B9A42F9D3FFF7B7FF01F0F3FDFFF7FF
:10077C0015FE704710240008000000200C0000201B
:10078C000C00002044000020FEE7000080B500AF04
:10079C00084B1B68074A43F010031360032000F05A
:1007AC002BF9002000F008F8FFF716FF002318467D
:1007BC0080BD00BF0020024080B582B000AF7860E1
:1007CC00124B1A68124B1B7819464FF47A73B3FB11
:1007DC00F1F3B2FBF3F3184600F035F90346002BA6
:1007EC0001D001230EE07B680F2B0AD80022796818
:1007FC004FF0FF3000F00BF9064A7B6813600023C2
:10080C0000E0012318460837BD4680BD00000020DB
:10081C00080000200400002080B400AF054B1B78BA
:10082C001A46054B1B681344034A136000BFBD46B0
:10083C0080BC7047080000204000002080B400AF4E
:10084C00024B1B681846BD4680BC70474000002018
:10085C0080B584B000AF7860FFF7F0FFB8607B68BC
:10086C00FB60FB68B3F1FF3F05D00A4B1B781A46BF
:10087C00FB681344FB6000BFFFF7E0FF0246BB6858
:10088C00D31AFA689A42F7D800BF00BF1037BD469A
:10089C0080BD00BF0800002080B485B000AF786038
:1008AC007B6803F00703FB600C4BDB68BB60BA682A
:1008BC004FF6FF031340BB60FB681A02BB6813437F
:1008CC0043F0BF6343F40033BB60044ABB68D3609E
:1008DC0000BF1437BD4680BC704700BF00ED00E080
:1008EC0080B400AF044BDB681B0A03F00703184607
:1008FC00BD4680BC704700BF00ED00E080B483B003
:10090C0000AF03463960FB7197F90730002B0ADB07
:10091C003B68DAB20C4997F907301201D2B20B449A
:10092C0083F800230AE03B68DAB20849FB7903F04C
:10093C000F03043B1201D2B20B441A7600BF0C37E2
:10094C00BD4680BC704700BF00E100E000ED00E058
:10095C0080B489B000AFF860B9607A60FB6803F0CE
:10096C000703FB61FB69C3F10703042B28BF0423B6
:10097C00BB61FB690433062B02D9FB69033B00E026
:10098C0000237B614FF0FF32BB6902FA03F3DA43B9
:10099C00BB681A407B699A404FF0FF317B6901FAC2
:1009AC0003F3D9437B680B40134318462437BD46E9
:1009BC0080BC704780B582B000AF78607B68013B2B
:1009CC00B3F1807F01D301230FE00A4A7B68013B1E
:1009DC0053600F214FF0FF30FFF790FF054B0022C3
:1009EC009A60044B07221A60002318460837BD464C
:1009FC0080BD00BF10E000E080B582B000AF786031
:100A0C007868FFF749FF00BF0837BD4680BD80B549
:100A1C0086B000AF0346B9607A60FB7300237B613C
:100A2C00FFF75EFF78617A68B9687869FFF790FF25
:100A3C00024697F90F3011461846FFF75FFF00BFCB
:100A4C001837BD4680BD80B582B000AF786078683D
:100A5C00FFF7B0FF034618460837BD4680BD0000BF
:100A6C0080B48BB000AF7860396000237B620023C8
:100A7C003B6261E101227B6A02FA03F3FB613B6892
:100A8C001B68FA691340BB61BA69FB699A4240F072
:100A9C0050813B685B68974A93425ED0954A93427B
:100AAC0075D8954A934258D0934A93426FD8934A3B
:100ABC00934252D0914A934269D8914A93424CD076
:100ACC008F4A934263D88F4A934246D08D4A9342C1
:100ADC005DD8122B2AD8122B59D801A252F823F028
:100AEC00670B0008410B0008530B0008950B00081E
:100AFC009B0B00089B0B00089B0B00089B0B000832
:100B0C009B0B00089B0B00089B0B00089B0B000821
:100B1C009B0B00089B0B00089B0B00089B0B000811
:100B2C009B0B0008490B00085D0B0008764A9342AA
:100B3C0013D02CE03B68DB683B6229E03B68DB6848
:100B4C0004333B6224E03B68DB6808333B621FE004
:100B5C003B68DB680C333B621AE03B689B68002BFC
:100B6C0002D104233B6213E03B689B68012B05D147
:100B7C0008233B627B68FA691A6109E008233B622F
:100B8C007B68FA695A6103E000233B6200E000BF16
:100B9C00BB69FF2B01D87B6801E07B6804337B6168
:100BAC00BB69FF2B02D87B6A9B0002E07B6A083B87
:100BBC009B003B617B691A680F213B6901FA03F3C7
:100BCC00DB431A40396A3B6901FA03F31A437B6928
:100BDC001A603B685B6803F08053002B00F0A9801F
:100BEC004A4B9B69494A43F001039361474B9B690C
:100BFC0003F00103BB60BB68454A7B6A9B08023368
:100C0C0052F82330FB607B6A03F003039B000F2236
:100C1C0002FA03F3DB43FA681340FB607B683D4A3E
:100C2C0093420DD07B683C4A934207D07B683B4A89
:100C3C00934201D1022304E0032302E0012300E0EC
:100C4C0000237A6A02F0030292009340FA6813437D
:100C5C00FB602F497B6A9B080233FA6841F823201A
:100C6C003B685B6803F48033002B06D02C4B1A686E
:100C7C002B49BB6913430B6006E0294B1A68BB690F
:100C8C00DB43274913400B603B685B6803F400337C
:100C9C00002B06D0224B5A682149BB6913434B6089
:100CAC0006E01F4B5A68BB69DB431D4913404B6080
:100CBC003B685B6803F48013002B06D0184B9A68D2
:100CCC001749BB6913438B6006E0154B9A68BB69E7
:100CDC00DB43134913408B603B685B6803F40013E0
:100CEC00002B1FD00E4BDA680D49BB691343CB6048
:100CFC001FE000BF00003210000031100000221075
:100D0C000000211000001210000011100010024011
:100D1C000000014000080140000C0140001001409F
:100D2C00000401400B4BDA68BB69DB4309491340F3
:100D3C00CB607B6A01337B623B681A687B6A22FA60
:100D4C0003F3002B7FF496AE00BF00BF2C37BD46DB
:100D5C0080BC70470004014080B483B000AF786061
:100D6C000B467B8013467B707B78002B03D07A88F4
:100D7C007B681A6103E07B881A047B681A6100BFE8
:100D8C000C37BD4680BC704780B400AF034B0122CA
:100D9C001A6000BFBD4680BC704700BF20000E42E9
:100DAC0080B586B000AF78607B68002B01D1012341
:100DBC0072E27B681B6803F00103002B00F0878054
:100DCC00924B5B6803F00C03042B0CD08F4B5B68CD
:100DDC0003F00C03082B12D18C4B5B6803F48033AB
:100DEC00B3F5803F0BD1894B1B6803F40033002B08
:100DFC006CD07B685B68002B68D101234CE27B686C
:100E0C005B68B3F5803F06D1804B1B687F4A43F487
:100E1C00803313602EE07B685B68002B0CD17B4B1E
:100E2C001B687A4A23F480331360784B1B68774A2B
:100E3C0023F4802313601DE07B685B68B3F5A02F5F
:100E4C000CD1724B1B68714A43F4802313606F4BB7
:100E5C001B686E4A43F4803313600BE06B4B1B68CA
:100E6C006A4A23F480331360684B1B68674A23F487
:100E7C00802313607B685B68002B13D0FFF7DEFCCC
:100E8C00386108E0FFF7DAFC02463B69D31A642BA1
:100E9C0001D9032300E25D4B1B6803F40033002BE4
:100EAC00F0D014E0FFF7CAFC386108E0FFF7C6FC8D
:100EBC0002463B69D31A642B01D90323ECE1534B53
:100ECC001B6803F40033002BF0D100E000BF7B68FB
:100EDC001B6803F00203002B63D04C4B5B6803F0E0
:100EEC000C03002B0BD0494B5B6803F00C03082B55
:100EFC001CD1464B5B6803F48033002B16D1434B5B
:100F0C001B6803F00203002B05D07B681B69012BC7
:100F1C0001D00123C0E13D4B1B6823F0F8027B6834
:100F2C005B69DB00394913430B603AE07B681B6952
:100F3C00002B20D0364B01221A60FFF77FFC386162
:100F4C0008E0FFF77BFC02463B69D31A022B01D960
:100F5C000323A1E12D4B1B6803F00203002BF0D0FF
:100F6C002A4B1B6823F0F8027B685B69DB0027497E
:100F7C0013430B6015E0264B00221A60FFF75EFC52
:100F8C00386108E0FFF75AFC02463B69D31A022B82
:100F9C0001D9032380E11D4B1B6803F00203002BD6
:100FAC00F0D17B681B6803F00803002B3AD07B68F8
:100FBC009B69002B19D0174B01221A60FFF73EFCDE
:100FCC00386108E0FFF73AFC02463B69D31A022B62
:100FDC0001D9032360E10D4B5B6A03F00203002B84
:100FEC00F0D0012000F0C4FA1CE00A4B00221A6079
:100FFC00FFF724FC38610FE0FFF720FC02463B6949
:10100C00D31A022B08D9032346E100BF001002407B
:10101C000000424280044242924B5B6A03F002039E
:10102C00002BE9D17B681B6803F00403002B00F054
:10103C00A6800023FB758B4BDB6903F08053002BE0
:10104C000DD1884BDB69874A43F08053D361854BC4
:10105C00DB6903F08053BB60BB680123FB75824BDB
:10106C001B6803F48073002B18D17F4B1B687E4ADE
:10107C0043F480731360FFF7E1FB386108E0FFF77E
:10108C00DDFB02463B69D31A642B01D9032303E130
:10109C00754B1B6803F48073002BF0D07B68DB6806
:1010AC00012B06D16F4B1B6A6E4A43F0010313628E
:1010BC002DE07B68DB68002B0CD16A4B1B6A694AFC
:1010CC0023F001031362674B1B6A664A23F0040387
:1010DC0013621CE07B68DB68052B0CD1614B1B6A2F
:1010EC00604A43F0040313625E4B1B6A5D4A43F093
:1010FC00010313620BE05B4B1B6A5A4A23F001039A
:10110C001362584B1B6A574A23F0040313627B6823
:10111C00DB68002B15D0FFF791FB38610AE0FFF775
:10112C008DFB02463B69D31A41F28832934201D9B6
:10113C000323B1E04B4B1B6A03F00203002BEED0F0
:10114C0014E0FFF77BFB38610AE0FFF777FB024600
:10115C003B69D31A41F28832934201D903239BE0B5
:10116C00404B1B6A03F00203002BEED1FB7D012BDD
:10117C0005D13C4BDB693B4A23F08053D3617B6840
:10118C00DB69002B00F08780364B5B6803F00C03A7
:10119C00082B61D07B68DB69022B46D1334B0022D4
:1011AC001A60FFF74BFB386108E0FFF747FB02467C
:1011BC003B69D31A022B01D903236DE0294B1B6821
:1011CC0003F00073002BF0D17B681B6AB3F5803FF2
:1011DC0008D1244B5B6823F400327B689B6821495F
:1011EC0013434B601F4B5B6823F474127B68196AC2
:1011FC007B685B6A0B431B4913434B601B4B0122FF
:10120C001A60FFF71BFB386108E0FFF717FB02467B
:10121C003B69D31A022B01D903233DE0114B1B6808
:10122C0003F00073002BF0D035E0104B00221A6055
:10123C00FFF704FB386108E0FFF700FB02463B694F
:10124C00D31A022B01D9032326E0064B1B6803F0AB
:10125C000073002BF0D11EE07B68DB69012B07D1FA
:10126C00012319E00010024000700040600042426F
:10127C000B4B5B68FB60FB6803F480327B681B6A7A
:10128C009A4206D1FB6803F470127B685B6A9A423F
:10129C0001D0012300E0002318461837BD4680BD5D
:1012AC000010024080B584B000AF786039607B6874
:1012BC00002B01D10123D0E06A4B1B6803F007031C
:1012CC003A689A4210D9674B1B6823F007026549AC
:1012DC003B6813430B60634B1B6803F007033A68CE
:1012EC009A4201D00123B8E07B681B6803F002032B
:1012FC00002B20D07B681B6803F00403002B05D067
:10130C00594B5B68584A43F4E06353607B681B6835
:10131C0003F00803002B05D0534B5B68524A43F48F
:10132C0060535360504B5B6823F0F0027B689B6802
:10133C004D4913434B607B681B6803F00103002B82
:10134C0040D07B685B68012B07D1474B1B6803F4CB
:10135C000033002B15D101237FE07B685B68022BE7
:10136C0007D1414B1B6803F00073002B09D10123FB
:10137C0073E03D4B1B6803F00203002B01D10123EA
:10138C006BE0394B5B6823F003027B685B68364982
:10139C0013434B60FFF752FAF8600AE0FFF74EFA7E
:1013AC000246FB68D31A41F28832934201D90323D7
:1013BC0053E02D4B5B6803F00C027B685B689B0071
:1013CC009A42EBD1274B1B6803F007033A689A4209
:1013DC0010D2244B1B6823F0070222493B681343AD
:1013EC000B60204B1B6803F007033A689A4201D04C
:1013FC00012332E07B681B6803F00403002B08D048
:10140C00194B5B6823F4E0627B68DB681649134375
:10141C004B607B681B6803F00803002B09D0124B50
:10142C005B6823F460527B681B69DB000E49134335
:10143C004B6000F021F802460B4B5B681B0903F074
:10144C000F030A49CB5C22FA03F3094A1360094BD8
:10145C001B681846FFF7B0F9002318461037BD4635
:10146C0080BD00BF0020024000100240F0230008A5
:10147C00000000200400002090B48AB000AF294B7B
:10148C003C1D0FCB84E80F0040F201233B8000236E
:10149C00FB610023BB6100237B6200237B61002383
:1014AC003B62214B5B68FB61FB6903F00C03042B73
:1014BC0002D0082B03D02BE01C4B3B622BE0FB69CA
:1014CC009B0C03F00F0328333B4413F8243C7B6143
:1014DC00FB6903F48033002B12D0134B5B685B0C5D
:1014EC0003F0010328333B4413F8283CBB617B69B0
:1014FC000E4A03FB02F2BB69B2FBF3F37B6204E01E
:10150C007B690B4A02FB03F37B627B6A3B6202E062
:10151C00064B3B6200BF3B6A18462837BD4690BC61
:10152C00704700BFD02300080010024000127A0060
:10153C0000093D0080B400AF024B1B681846BD4645
:10154C0080BC70470000002080B500AFFFF7F2FFB1
:10155C000246054B5B68DB0A03F007030349CB5CCF
:10156C0022FA03F3184680BD001002400024000844
:10157C0080B485B000AF78600A4B1B680A4AA2FBA6
:10158C0003235B0A7A6802FB03F3FB6000BFFB6872
:10159C005A1EFA60002BF9D100BF00BF1437BD46AC
:1015AC0080BC704700000020D34D621080B586B01F
:1015BC0000AF786000233B610023FB607B681B68F5
:1015CC0003F00103002B7DD00023FB754F4BDB692F
:1015DC0003F08053002B0DD14C4BDB694B4A43F08D
:1015EC008053D361494BDB6903F08053BB60BB680C
:1015FC000123FB75464B1B6803F48073002B18D139
:10160C00434B1B68424A43F480731360FFF716F98F
:10161C00386108E0FFF712F902463B69D31A642BD4
:10162C0001D903236DE03A4B1B6803F48073002B44
:10163C00F0D0364B1B6A03F44073FB60FB68002B45
:10164C002ED07B685B6803F44073FA689A4227D00B
:10165C002E4B1B6A23F44073FB602E4B01221A6045
:10166C002C4B00221A60294AFB681362FB6803F0BA
:10167C000103002B14D0FFF7E1F838610AE0FFF703
:10168C00DDF802463B69D31A41F28832934201D904
:10169C00032336E01D4B1B6A03F00203002BEED034
:1016AC001A4B1B6A23F440727B685B68174913431F
:1016BC000B62FB7D012B05D1144BDB69134A23F024
:1016CC008053D3617B681B6803F00203002B08D0A6
:1016DC000E4B5B6823F440427B689B680B491343B9
:1016EC004B607B681B6803F01003002B08D0074B82
:1016FC005B6823F480027B68DB68044913434B600E
:10170C00002318461837BD4680BD00BF00100240AC
:10171C00007000404004424290B58DB000AF78603C
:10172C00584B07F10C040FCB84E80F0040F2012357
:10173C003B8100237B620023FB6200233B6200237E
:10174C00FB610023BB627B68102B0AD07B68102BDB
:10175C0000F28E807B68012B49D07B68022B79D0FC
:10176C0086E0494B5B68FB61474B1B6803F0807359
:10177C00002B7FD0FB699B0C03F00F0330333B44F1
:10178C0013F8243C3B62FB6903F48033002B17D025
:10179C003D4B5B685B0C03F0010330333B4413F8A7
:1017AC00283C7B62FB6903F48033002B0DD0374A55
:1017BC007B6AB2FBF3F23B6A02FB03F3FB6204E0CD
:1017CC003B6A334A02FB03F3FB622F4B5B6803F467
:1017DC008003B3F5800F02D1FB6ABB624AE0FB6A5F
:1017EC005B002C4AA2FB03235B08BB6242E0264B46
:1017FC001B6AFB61FB6903F44073B3F5807F08D16E
:10180C00FB6903F00203002B03D04FF40043BB62CF
:10181C001FE0FB6903F44073B3F5007F09D11A4B49
:10182C005B6A03F00203002B03D049F64043BB6212
:10183C000FE0FB6903F44073B3F5407F1CD1124BEE
:10184C001B6803F40033002B16D04FF22443BB6209
:10185C0012E011E0FFF778FE02460B4B5B689B0B26
:10186C0003F0030301335B00B2FBF3F3BB6204E050
:10187C0000BF02E000BF00E000BFBB6A184634376F
:10188C00BD4690BDE02300080010024000127A0013
:10189C0000093D00ABAAAAAA80B584B000AF78605D
:1018AC000023FB607B68002B01D1012384E07B6863
:1018BC005B7CDBB2002B05D17B6800221A74786844
:1018CC00FEF7BCFE7B6802225A74786800F0A0FA1E
:1018DC000346002B04D07B6804225A7401236BE06E
:1018EC00786800F059FB0346002B04D07B68042277
:1018FC005A74012360E07B681B685A687B681B681C
:10190C0022F007025A607B689B68002B05D02C4B99
:10191C001B6B2B4A23F001031363294BDB6A23F463
:10192C0060727B689B6826491343CB627B685B685B
:10193C00B3F1FF3F03D07B685B68FB600EE00120D6
:10194C00FFF7EAFEF860FB68002B04D17B680422E9
:10195C005A74012330E0FB68013BFB607B681B6819
:10196C009B6823F00F01FB681A0C7B681B680A4309
:10197C009A607B681B68DB681B0C1B04FA6891B2CD
:10198C007A6812680B43D360786800F02DFB03462D
:10199C00002B04D07B6804225A7401230CE07B6872
:1019AC000022DA737B6801225A737B6801229A73D6
:1019BC007B6801225A74002318461037BD4680BD3F
:1019CC00006C004090B587B000AFF860B9607A60E9
:1019DC0000237B6100233B61FB68002B02D0BB68BA
:1019EC00002B01D1012380E0FB681B7C012B01D172
:1019FC0002237AE0FB6801221A74FB6802225A74F3
:101A0C007B68002B13D1BB681B781A464FF46163BB
:101A1C0003FB02F2BB685B7819460B461B015B1A91
:101A2C009B001344BA68927813447B611EE0BB6838
:101A3C001B78184600F01DFB03461A464FF46163F1
:101A4C0003FB02F4BB685B78184600F012FB0346FC
:101A5C001A4613461B019B1A9B001C44BB689B78BF
:101A6C00184600F006FB034623447B617969F8684D
:101A7C0000F02BFA0346002B07D0FB6804225A74A3
:101A8C00FB6800221A7401232FE0FB681B685A685C
:101A9C00FB681B6822F005025A60F86800F03CFAFB
:101AAC0038613B69B3F1FF3F18D03A697B699A42C0
:101ABC0014D23B6903F5A83303F5C0733B61396954
:101ACC00F86800F042FA0346002B07D0FB680422AA
:101ADC005A74FB6800221A74012306E0FB68012289
:101AEC005A74FB6800221A74002318461C37BD4632
:101AFC0090BD000080B588B000AFF860B9607A6026
:101B0C000023BB610023FB6100237B6100233B614D
:101B1C00FB68002B02D0BB68002B01D10123B5E080
:101B2C00FB681B685B6803F00403002B01D00123E6
:101B3C00ACE0F86800F099F9B861BB69554AA2FBB2
:101B4C000323DB0A3B61BA69524BA3FB0213DB0A8A
:101B5C004FF4616101FB03F3D31A4F4AA2FB032339
:101B6C005B09DAB2BB685A70BB694A4AA2FB031222
:101B7C00D20A4FF4616101FB02F29A1A464BA3FBA5
:101B8C00021359090B461B015B1A9B00D11ACAB2EE
:101B9C00BB689A703B69172B55D93B693F4AA2FB2E
:101BAC0003231B097B6139693C4BA3FB01231A09F5
:101BBC0013465B001344DB00CA1AD2B2BB681A701E
:101BCC00F86800F0A9F9F861FB69B3F1FF3F08D0A0
:101BDC00FA69BB699A4204D9FA69BB69D31AFB61E9
:101BEC0002E04FF0FF33FB617B692D4A02FB03F3EC
:101BFC00BA69D31ABB61B969F86800F066F9034693
:101C0C00002B01D0012341E0FB69B3F1FF3F0CD065
:101C1C00FA69BB691344FB61F969F86800F095F93E
:101C2C000346002B0AD0012330E0F969F86800F074
:101C3C008CF90346002B01D0012327E07969F86861
:101C4C0000F034FA03E03B69DAB2BB681A707B68C7
:101C5C00002B1AD0BB681B78184600F0EDF9034630
:101C6C001A46BB681A70BB685B78184600F0E4F93A
:101C7C0003461A46BB685A70BB689B78184600F03E
:101C8C00DBF903461A46BB689A70002318462037C6
:101C9C00BD4680BDC5B3A29189888888ABAAAAAA83
:101CAC008051010080B588B000AFF860B9607A60EF
:101CBC000023FB610023BB6100237B61FB68002BCD
:101CCC0002D0BB68002B01D1012397E0FB681B7C81
:101CDC00012B01D1022391E0FB6801221A74FB68ED
:101CEC0002225A747B68002B0CD1BB68DA78FB6833
:101CFC00DA73BB685A78FB685A73BB689A78FB68CE
:101D0C009A731AE0BB68DB78184600F0B2F9034608
:101D1C001A46FB68DA73BB685B78184600F0A9F9C1
:101D2C0003461A46FB685A73BB689B78184600F04A
:101D3C00A0F903461A46FB689A73FB68DB7B1846CE
:101D4C00FB68597BFB689B7B1A4600F08BFA0346B9
:101D5C001A46FB681A73FB681A7BBB681A70F86822
:101D6C0000F083F8F861FB69264AA2FB0323DB0A27
:101D7C007B617B69182B3AD97B69234AA2FB03232D
:101D8C001B09224A02FB03F3FA69D31AFB61F969B6
:101D9C00F86800F09AF80346002B07D0FB68042281
:101DAC005A74FB6800221A74012327E0F86800F0CB
:101DBC00B3F8B861BB69B3F1FF3F18D0BA69FB69DE
:101DCC009A4214D2BB6903F5A83303F5C073BB6107
:101DDC00B969F86800F0B9F80346002B07D0FB6826
:101DEC0004225A74FB6800221A74012306E0FB6873
:101DFC0001225A74FB6800221A74002318462037FB
:101E0C00BD4680BDC5B3A291ABAAAAAA8051010060
:101E1C0080B584B000AF78600023FB607B68002B3A
:101E2C0001D101231DE07B681B685A687B681B6825
:101E3C0022F008025A60FEF701FDF86009E0FEF797
:101E4C00FDFC0246FB68D31AB3F57A7F01D9032354
:101E5C0007E07B681B685B6803F00803002BEED07F
:101E6C00002318461037BD4680BD80B487B000AF44
:101E7C00786000237B8200233B820023FB810023BC
:101E8C007B617B681B689B697B827B681B68DB6959
:101E9C00FB817B681B689B693B827A8A3B8A9A42EE
:101EAC0008D03B8A1A047B681B68DB699BB213431E
:101EBC007B6104E07B8A1A04FB8913437B617B6999
:101ECC0018461C37BD4680BC704780B584B000AF47
:101EDC00786039600023FB73786800F05DF8034686
:101EEC00002B02D00123FB7311E07B681B683A685E
:101EFC00120C9A617B681B683A6892B2DA61786856
:101F0C0000F072F80346002B01D00123FB73FB7B1E
:101F1C0018461037BD4680BD80B485B000AF7860E0
:101F2C000023FB810023BB817B681B681B6AFB8140
:101F3C007B681B685B6ABB81FB891A04BB891343F2
:101F4C0018461437BD4680BC704780B584B000AFCE
:101F5C00786039600023FB73786800F01DF8034645
:101F6C00002B02D00123FB7311E07B681B683A68DD
:101F7C00120C1A627B681B683A6892B25A627868D3
:101F8C0000F032F80346002B01D00123FB73FB7BDE
:101F9C0018461037BD4680BD80B584B000AF786060
:101FAC000023FB60FEF74AFCF86009E0FEF746FCF4
:101FBC000246FB68D31AB3F57A7F01D903230FE0ED
:101FCC007B681B685B6803F02003002BEED07B68FA
:101FDC001B685A687B681B6842F010025A60002329
:101FEC0018461037BD4680BD80B584B000AF786010
:101FFC000023FB607B681B685A687B681B6822F0B7
:10200C0010025A60FEF71AFCF86009E0FEF716FCA5
:10201C000246FB68D31AB3F57A7F01D9032307E094
:10202C007B681B685B6803F02003002BEED0002359
:10203C0018461037BD4680BD80B485B000AF03464E
:10204C00FB710023FB6005E0FB680133FB60FB794F
:10205C000A3BFB71FB79092BF6D8FB68DBB21B0141
:10206C00DAB2FB791343DBB218461437BD4680BC99
:10207C00704780B485B000AF0346FB710023FB6052
:10208C00FB791B09DBB21A4613469B0013445B0019
:10209C00FB60FB7903F00F03DAB2FB68DBB213448D
:1020AC00DBB218461437BD4680BC704780B586B08D
:1020BC0000AF7860396000237B6100233B61002313
:1020CC00FB600023BB607B68DB7B7B617B685B7B9D
:1020DC003B617B689B7BFB600023BB606FE03B69D3
:1020EC00012B11D03B69032B0ED03B69052B0BD078
:1020FC003B69072B08D03B69082B05D03B690A2BA1
:10210C0002D03B690C2B17D1FB681E2B03D8FB6844
:10211C000133FB6050E03B690C2B05D03B6901336C
:10212C003B610123FB6047E001233B610123FB6022
:10213C007B6901337B613FE03B69042B08D03B6931
:10214C00062B05D03B69092B02D03B690B2B0CD11C
:10215C00FB681D2B03D8FB680133FB602CE03B694B
:10216C0001333B610123FB6026E03B69022B23D149
:10217C00FB681B2B03D8FB680133FB601CE0FB687E
:10218C001C2B11D17B699BB2184600F039F8034621
:10219C00002B03D0FB680133FB600DE03B6901337E
:1021AC003B610123FB6007E0FB681D2B04D13B69FD
:1021BC0001333B610123FB60BB680133BB60BA6830
:1021CC003B689A428BD37B69DAB27B68DA733B69E2
:1021DC00DAB27B685A73FB68DAB27B689A733B6934
:1021EC00DBB2FA68D2B21946786900F03BF80346C4
:1021FC001A467B681A7300BF1837BD4680BD0000B5
:10220C0080B483B000AF0346FB80FB8803F003036C
:10221C009BB2002B01D000231DE0FB88104AA2FBCF
:10222C0003125209642101FB02F29B1A9BB2002B90
:10223C0001D001230FE0FB88094AA2FB0312D2094B
:10224C004FF4C87101FB02F29B1A9BB2002B01D117
:10225C00012300E0002318460C37BD4680BC7047B4
:10226C001F85EB5180B485B000AF78600B46FB70D6
:10227C001346BB700023BB600023FB607B6803F537
:10228C00FA63BB60FB78022B2DD8FA7813465B00FF
:10229C001344DB009B1A2C4AA2FB03235A08BB787D
:1022AC001A44BB681A44BB68013B9B081A44BB68C0
:1022BC00013B2649A1FB03135B09D21ABB68013B06
:1022CC002249A1FB0313DB0913441A1D204BA3FB6A
:1022DC000213D11A49080B4499080B46DB005B1A10
:1022EC00D31AFB6029E0FA7813465B001344DB0039
:1022FC009B1A154AA2FB03235A08BB781A44BB68E5
:10230C001A44BB689B081A44BB681049A1FB031311
:10231C005B09D21ABB680D49A1FB0313DB091344FB
:10232C009A1C0B4BA3FB0213D11A49080B449908B6
:10233C000B46DB005B1AD31AFB60FB68DBB218465A
:10234C001437BD4680BC7047398EE3381F85EB517E
:10235C002549922470B500260C4D0D4C641BA4101D
:10236C00A64209D100F022F800260A4D0A4C641B43
:10237C00A410A64205D170BD55F8043B9847013610
:10238C00EEE755F8043B98470136F2E708240008BD
:10239C0008240008082400080C2400080346024402
:1023AC00934200D1704703F8011BF9E7F8B500BF61
:1023BC00F8BC08BC9E467047F8B500BFF8BC08BC1A
:0423CC009E46704772
:1023D00002030405060708090A0B0C0D0E0F101066
:1023E00002030405060708090A0B0C0D0E0F101056
:1023F00000000000000000000102030406070809B5
:082400000000000001020304CA
:042408003101000896
:04240C000D010008B6
:0C2410000024F400100000000100000097
:040000050800074D9B
:00000001FF
